:020000040800F2
:10000000C8320020ED010008751500086D150008C4
:1000100071150008511400088B1D00080000000035
:10002000000000000000000000000000151700089C
:100030005514000800000000FD15000829180008EC
:10004000070200080702000807020008070200086C
:10005000070200080702000807020008070200085C
:10006000070200080702000807020008070200084C
:10007000070200080702000807020008070200083C
:10008000070200080702000807020008070200082C
:10009000070200080702000807020008070200081C
:1000A000070200080702000807020008070200080C
:1000B00007020008070200080702000807020008FC
:1000C00007020008070200080702000807020008EC
:1000D000070200088D18000807020008A118000890
:1000E00007020008070200080702000807020008CC
:1000F00007020008070200080702000807020008BC
:1001000007020008070200080702000807020008AB
:10011000070200080702000807020008070200089B
:10012000070200080702000807020008070200088B
:1001300000F002F800F04AF80AA090E8000C8244AF
:100140008344AAF10107DA4501D100F03FF8AFF28C
:10015000090EBAE80F0013F0010F18BFFB1A43F0A5
:1001600001031847302E0000502E0000103A24BF23
:1001700078C878C1FAD8520724BF30C830C144BF0C
:1001800004680C607047000000230024002500264E
:10019000103A28BF78C1FBD8520728BF30C148BFEA
:1001A0000B607047662902F02886642900F074808D
:1001B000002070471FB500F0F9FB0400002000216B
:1001C00002F0B0F8E0601FBD10B510BD00F00AFDF0
:1001D0001146FFF7EFFF01F0FBFE00F028FD03B42E
:1001E000FFF7F2FF03BC01F0EDFD00000948804776
:1001F00009480047FEE7FEE7FEE7FEE7FEE7FEE709
:10020000FEE7FEE7FEE7FEE704480549054A064B20
:10021000704700002D18000831010008C82C00208C
:10022000C8320020C82E0020C82E002070470000D1
:100230000FB4044910B503AA029800F0A5FB10BC46
:100240005DF814FB3400002070B504468569006831
:10025000C10601D5302600E02026C00707D070BDBA
:10026000D4E9012130469047206A401C20626D1E6F
:10027000F6D570BD70B5044685690078C00707D112
:1002800070BDD4E9012120209047206A401C2062E3
:100290006D1EF6D570BD00002DE9F0410646002424
:1002A00010687529314616A510D0AFF300800028DC
:1002B00002DA404213A507E031688A0701D512A58A
:1002C00002E0490704D511A5012401E0AFF3008045
:1002D00000210A2206F1240709E0B0FBF2FCB0FB82
:1002E000F2F302FB1C00303078541846491C0028F9
:1002F000F3D123462A463046BDE8F04100F0DCB891
:10030000000000002D0000002B0000002000000075
:100310002DE9F0474FF0000A89460446C0F820A0B6
:100320002046E1688847002876D0252806D0D4E901
:1003300001219047206A401C2062F1E7E1682046D5
:1003400000258847C4F81CA006460027C4F818A05A
:100350002A2E09D0304601F02EFD38B304EB870871
:10036000303EC8F8186019E059F8041B204604EB29
:1003700087029161E1688847012F064618D1E0693C
:10038000002820DA25F020051DE0D8F8180000EB41
:10039000800006EB40003038C8F818002046E168BD
:1003A0008847064601F007FD0028EED1012F0AD04C
:1003B0002E2E08D12046E16888477F1C0646022F72
:1003C00045F02005C4DBA069002803DA404245F06F
:1003D0000105A061E80701D025F01005B6B1A6F12E
:1003E0004100192802D8203645F400654A463146B6
:1003F000204625604D46FFF7D5FE58B1012806D0AE
:10040000ED1D25F0070000F1080989E704E005F17A
:10041000040985E730468AE7206ABDE8F0874FF097
:1004200000020429C0F0128010F0030C00F01B80C1
:10043000CCF1040CBCF1020F18BF00F8012BA8BFCF
:1004400020F8022BA1EB0C0100F00DB85FEAC17C93
:1004500024BF00F8012B00F8012B48BF00F8012B46
:1004600070474FF0000200B5134694469646203977
:1004700022BFA0E80C50A0E80C50B1F12001BFF45D
:10048000F7AF090728BFA0E80C5048BF0CC05DF8C3
:1004900004EB890028BF40F8042B08BF704748BF11
:1004A00020F8022B11F0804F18BF00F8012B704785
:1004B00070477047704770472DE9F0470D469946E1
:1004C0009246044600F124080168880604D5E069D4
:1004D00021F01001216000E00120A84201DD471B4E
:1004E00000E00027A1697A1902EB0900081AA0614F
:1004F0002078C00602D42046FFF7A6FE002608E0BA
:10050000D4E901211AF806009047206A401C761CA5
:1005100020624E45F4DB2078C0060AD52046FFF75E
:1005200093FE06E0D4E9012130209047206A401C68
:100530002062381EA7F10107F4DC07E0D4E90121AD
:1005400018F805009047206A401C2062281EA5F17B
:100550000105F3DC2046FFF78DFE2078000602D56A
:100560000220BDE8F0870120FBE770472DE9FF4F2F
:100570000C461E464FF0FF378BB0D2E90001DDF884
:1005800060800A908A46C1F30A5505B93D460021AC
:1005900008464FF00000BAF1000F00F4400005DA01
:1005A00000EB80004FF4400101EA50004FEA9059FF
:1005B000B9F1010F00DDB9460A9850EA4A000ED0A1
:1005C00044F61050A5F2FF3545432F14B8F1000F43
:1005D0001ED07542291E1EDDC9F100021CE0B8F1D3
:1005E000010F4FF0000001D0302103E0F24305E09D
:1005F0002154401CB042FBDB304600220021215434
:100600000B99C1F80880C1E900200FB0BDE8F08F58
:10061000BD1B6D1CDEE74A4600DA694206A800F001
:1006200067FA06AB93E8070003AB83E80700504680
:100630000A9900F045FB8DE80700A0F500501F382F
:1006400000900398002D0ADD42F21F014A4608443B
:10065000002303A90390684600F0AEFD09E0A0F571
:1006600000504A461F38002303A90390684600F053
:10067000B8FD8DE807000004000C03D04FF0FF30F8
:10068000410800E01046B8F1000F03D000220092AC
:1006900015461EE0751E05D400F08CF93032625507
:1006A0006D1EF9D5B3460122084302D000227F1CFB
:1006B00004E02078302801D100227F1E002A09970B
:1006C00084D01DE0112D07DA00F074F93032625544
:1006D0006D1C50EA0102F5D1084302D00098C8B160
:1006E0000EE00021681E05E0235C625C6354225426
:1006F000401E491C8142F7DBAB46A81B401E0990F7
:10070000002004F80B000B98099AC0F80880C0E993
:10071000002B7AE711264FF0000857E72DE9F04F3C
:1007200088460446D21D22F0070191B0D1E90001AC
:10073000CDE90A0101F02BFB02460B98C00F01D056
:100740002D2007E02068810701D52B2002E0202121
:1007500001EAC000032A099001D0072A05DB0346FD
:100760004146204600F084F90BE12078800601D54F
:10077000E06900E00620B8F1650F814606D0B8F1C7
:10078000660F18D0B8F1670F70D131E00020B9F1D1
:10079000110F009001DB112301E009F101030AAA06
:1007A00001A90CA8FFF7E2FEDDE90C70002609F1B3
:1007B0000105834647E001204B4600904FF000477B
:1007C0000AAA01A90CA8FFF7D1FEDDE90DB00C992A
:1007D0005D46002610B909F101000D18B9EB0500BE
:1007E00003D4C0F1FF3609F10105A5EB09002BE0A8
:1007F000B9F1010F01DA4FF001090020B9F1110F31
:100800000090484601DD112300E003460AAA01A931
:100810000CA8FFF7ABFEDDE90C704D4600268346C1
:10082000207800070AD4AB4500DA5D4601A8012D07
:1008300004DD411911F8011C302907D04F4502DAB7
:1008400017F1040F04DA012082460FE06D1EEEE777
:10085000002F02DCED1B3E4403E0781CA84200DDC3
:100860007D1CB81B00F1010A4FF0004720780007FB
:1008700003D4AA4501DB4FF0FF3A0021B7F1004F46
:100880000DF143088DF8431024D002202B23002FB4
:1008900001DA7F422D230A21021EA0F1010000DCB3
:1008A0005FB197FBF1FC97FBF1F201FB1C7C174653
:1008B0000CF1300C08F801CDEEE7A8F1010003704F
:1008C0002188090501D5452100E06521A0F1010835
:1008D00000F8011C09980FA9A1EB0807FF1D00B142
:1008E0000120411901EBEA70A1693844081A401E41
:1008F000A0612078C00602D42046FFF7A5FC099825
:1009000028B1D4E901219047206A401C2062207858
:10091000C00622D52046FFF797FC1EE0002E04DB20
:10092000B34502DD01A8805D00E03020D4E901215B
:100930009047206A401C2062761CAAF101005FEA01
:10094000000A0AD100F032F8C0680168405CD4E9BE
:1009500001219047206A401C2062281EA5F1010554
:10096000DCDC07E0D4E9012118F8010B9047206A8C
:10097000401C2062381EA7F10107F3DC2046FFF778
:1009800079FC032011B041E6074B70B50D467B445E
:1009900000F05BF80446284600F01CF910B14FF057
:1009A000FF3070BD204670BD231600000048704720
:1009B000842C002030B5B0F10A024FEA900E71F19C
:1009C00000034EEA817EB0EB0E0061EB91014FEA2D
:1009D000101E4EEA017E10EB0E0041EB11114FEAA2
:1009E000102E4EEA016E10EB0E0041EB11214FEA82
:1009F000104E4EEA014E10EB0E0041EB1141401833
:100A000041F100014FEAD00040EA41704FEAD101C4
:100A100010EB80054FEA810444EA907444EB010432
:100A20006D1944EB0404521BA3414FF0000348BF6F
:100A30000A3200D530BD401C41F1000130BD00003C
:100A400001694A1C02610878704700B58FB0CDE992
:100A500001310021059105497944CDE90310114682
:100A60006846FFF755FC0FB000BD0000E5FFFFFF33
:100A70002DE9F0411F46044603260168072A01F4C8
:100A8000006004DB08B116A505E016A503E008B177
:100A900015A500E015A521F010002060A069C01E7A
:100AA000A0610FB1401EA0612046FFF7CDFB4FB102
:100AB000D4E9012138469047206A401C2062C01CBE
:100AC000206206E0206AFAE7D4E9012115F8010B5B
:100AD0009047761EF8D22046FFF7CCFBBDE8F081A8
:100AE0004E414E006E616E00494E4600696E6600D2
:100AF0002DE9F047814616468AB0354878440DC83E
:100B00008DE80D0032487844801C03AC0DC884E8A1
:100B10000D0041F69B300844372190FBF1F290FB29
:100B2000F1F5A5F1800501FB12041B3C02D56442DE
:100B3000012000E00020DFF898A080460027FA445A
:100B4000AAF1BE0A0EE0E0070AD03246684607EB7B
:100B5000470101230AEB810100F043FB8DE8070008
:100B600064107F1C002CEED1194F7F44AE3F19E07A
:100B7000E80715D007EB04100DF1180A90E80E00F5
:100B80008AE80E00C068F04201D1981908903246F8
:100B9000012306A903A800F024FB03AB83E80700A8
:100BA0006D10641C002DE3D14FF0010332466946FD
:100BB000B8F1000F03A802D000F0FEFA01E000F047
:100BC00010FBC9E90001C9F808200AB0BDE8F087A8
:100BD0007C240000007B00F08000704700487047D4
:100BE000642C00207546FFF7F9FFAE460500694604
:100BF000534620F00700854618B020B5FFF704FBE8
:100C0000BDE820404FF000064FF000074FF000080D
:100C10004FF0000B21F00701AC46ACE8C009ACE88E
:100C2000C009ACE8C009ACE8C0098D46704710B5F2
:100C30000446AFF300802046BDE81040FFF7CFBA6E
:100C40004FF0013C50F8042B51F8043B9A4221D15B
:100C5000A2EB0C03934313EACC1317D150F8042BE7
:100C600051F8043B9A4215D1A2EB0C03934313EACB
:100C7000CC130BD150F8042B51F8043B9A4209D104
:100C8000A2EB0C03934313EACC13DBD04FF000002C
:100C9000704700BFD01A01BAB1FA81F101F0180112
:100CA00022FA01F0CB40C1F12001DBB2C0B2C01A80
:100CB0002CFA01F3D11A914311EAC311E6D170471E
:100CC0005FEA400C08BF91F0000F4FEA8C234FEA17
:100CD000C12243EA51514FEA1C5018BF00F5F040C1
:100CE0004FEA300018BF41F000415FEA6C5C00F051
:100CF0002980BCF1FF3F08BF40F080407047130CD3
:100D000006BF12044FF0100C4FF0000C130E04BF7E
:100D100012020CF1080C130F04BF12010CF1040CA9
:100D2000930F04BF92000CF1020CD30F04BF5200CA
:100D30000CF1010C11464FF00002A0F11F00A0EBD6
:100D40000C00704711F0004F08BF704731F00041B0
:100D50003FF4D5AF0B0C06BF09044FF0100C4FF059
:100D6000000C0B0E04BF09020CF1080C0B0F04BFA2
:100D700009010CF1040C8B0F04BF89000CF1020C6B
:100D8000CB0F04BF49000CF1010CCCF12003A0EB08
:100D90000C0022FA03F302FA0CF241EA030100F11B
:100DA0000100704720F07F4C80EA030023F07F476A
:100DB000ACEB070303F57C5300F0004003F1FF03A5
:100DC0002DE980494FEA154B09B44FEA144325EA4F
:100DD0000B4E24EA03480FF2042606EB13274908BA
:100DE0003E785FEA320203FB0667C7F5000707FBA0
:100DF00006F64FEA54374FEAD64606F1020607FBDD
:100E0000066CCCF1005C4FEA1C472CEA074C07FB50
:100E100006F40CFB06F504EB15464FEA961634BFB4
:100E200000204FF000404FEAD13706FB07FC4FEAA5
:100E30001C4C0CFB0BF7D21B03FB0CF761EB0701FF
:100E40000CFB0EF7B0EB074072EB17420CFB08F7F8
:100E500034BFA2EB0742B2EB074261EB17414FEA06
:100E60000C444FEA910706FB07FC4FEA1C4C0CFBB5
:100E70000BF7B0EBC74072EB573203FB0CF734BFF4
:100E8000A2EBC742B2EBC74261EB57310CFB0EF746
:100E9000B0EBC70072EB57720CFB08F734BFA2EB44
:100EA000C702B2EBC70261EB5771039F4FEA816142
:100EB00041EA921104EBCC044FEAD1374FEA826247
:100EC00006FB07FC42EA90124FEA80604FEA1C4C96
:100ED0000CFB0BF7D21B03FB0CF761EB07010CFBC0
:100EE0000EF7B0EB074072EB17420CFB08F734BF6C
:100EF000A2EB0742B2EB074261EB17414FEA8C5578
:100F00004FEA910704EB9C2406FB07FC4FEA1C4CBC
:100F10000CFB0BF7B0EBC74072EB573203FB0CF73F
:100F200034BFA2EBC742B2EBC74261EB57310CFBB7
:100F30000EF7B0EBC70072EB57720CFB08F734BF2B
:100F4000A2EBC702B2EBC70261EB577115EB4C2560
:100F50004FEA816141EA92114FEA82624FEAD1374A
:100F600042EA901206FB07FC44F100044FEA80605D
:100F70004FEA1C4C0CFB0BF7D21B03FB0CF761EB8D
:100F800007010CFB0EF7B0EB074072EB17420CFBAE
:100F900008F734BFA2EB0742B2EB074261EB1741FF
:100FA00015EB1C154FEA813141EA92414FEA82323A
:100FB00042EA90424FEA80304FEA0C7644F1000456
:100FC00048EA03434EEA0B484FF0000EB2EB080C20
:100FD00071EB030724BF624639464EEB0E0E4FF00D
:100FE000000B0018524149414BEB0B0BB2EB080CC4
:100FF00071EB03077BF1000B24BF624639464EEBD1
:101000000E0E4FF0000B0018524149414BEB0B0BF9
:10101000B2EB080C71EB03077BF1000B24BF6246B7
:1010200039464EEB0E0E51EA020718BF46F0010694
:1010300016EB0E7655F1000254F1000103D5BDE820
:101040008901BDE80088BDE88901BDE80048B619FE
:10105000524141EB0101A3F10103704780807F7E83
:101060007D7C7B7A7978777676757473727171701E
:101070006F6E6E6D6C6C6B6A6A69686867666665D0
:101080006464636362616160605F5F5E5E5D5D5C5E
:101090005C5B5B5A5A5959585857575656555555CF
:1010A0005454535352525251515050504F4F4F4E2F
:1010B0004E4D4D4D4C4C4C4B4B4B4A4A4A4949497D
:1010C00048484847474747464646454545444444BF
:1010D000444343434342424242414141002B9C46E8
:1010E00030D477002BD01CB54FEA370703B44FF04C
:1010F00010004FF01001BAF1000F06D0BCF1000F44
:10110000DCBF40F0080040F008014FF000000FBCC9
:10111000BDE810400BF1010BBBF1010F08BF5FEA06
:10112000170722BF12F1010211F101014FF0004136
:1011300043F1000300F0004043EA00007047F9D398
:101140005708D0E746EA064613F1400F4FEA164625
:101150001FDD13F1200FDFBF16430A4600212033A5
:101160005B42BED0C3F1200746EA064602FA07F703
:101170004FEA164646EA0706C3F1200722FA03F2B1
:1011800001FA07F721FA03F14FF0000342EA0702E0
:10119000A7E746EA020646EA06464FEA164646EA48
:1011A0000106BCBF46EA0646360C4FF000034FF07E
:1011B00000024FF0000194E72DE9804C9A469346D7
:1011C00070B491E8380007C831EA400C48BF34EAEF
:1011D000430C03D5FFF7E6FDFFF780FFF0BCBDE849
:1011E000008C2DE9804C9A46934670B491E8380003
:1011F00007C810F0804F08BF13F0804F03D100F0F4
:1012000005F8FFF76BFFF0BCBDE8008C20F07F47CE
:1012100080EA030023F07F4C07EB0C03A3F57C531B
:1012200000F00040A3F1FE0392F0000F00F0B38045
:1012300095F0000F00F077802DE901494FEA114049
:101240004FEA144621EA004800FB06FC24EA064760
:1012500008FB06F607FB08F800FB07F718EB064843
:101260004CEB164C4FEA124B18EB07484FEA154669
:101270004CEB174022EA0B4E0BFB06FC25EA064717
:101280000EFB06F607FB0EFE0BFB07F71EEB064EEA
:101290004CEB164C4FF000061EEB074E4CEB174B79
:1012A00018EB0B0840F1000018EB0E0B58EB000890
:1012B00040F100008F1A4FF000013CBFC943661B8C
:1012C00014BFB5EB040C00213CBFC943F61B4FEA29
:1012D00017444EEA8E0E27EA04454FEA1C4704FBEA
:1012E00007622CEA074C05FB07F70CFB05F604FB2D
:1012F0000CFC16EB074642EB174216EB0C4642EB92
:101300001C421BEB060658EB0202414146EA9E06D0
:1013100001D5BDE80189B619524141EB0101A3F1A4
:101320000103BDE801894FEA14454FEA114724EA59
:10133000054621EA074C05FB07F406FB07F70CFB03
:1013400006F105FB0CFC11EB074144EB17444FEA97
:10135000124711EB0C4144EB1C4422EA074C05FBFD
:1013600007F206FB07F70CFB06F605FB0CFC16EB79
:10137000074642EB174216EB0C4642EB1C456A1837
:1013800054F1000148BF7047B619524141EB0101C9
:10139000A3F10103704795F0000F37D04FEA1142D7
:1013A0004FEA144721EA024624EA074C02FB07F100
:1013B00006FB07F70CFB06F402FB0CFC14EB0744DE
:1013C00041EB17414FEA154714EB0C4441EB1C412C
:1013D00025EA074C02FB07F506FB07F70CFB06F6B0
:1013E00002FB0CFC16EB074645EB174516EB0C46CB
:1013F00045EB1C42121951F1000148BF7047B61964
:10140000524141EB0101A3F1010370474FEA14453A
:101410004FEA114724EA054621EA074C05FB07F18C
:1014200006FB07F70CFB06F24FF0000605FB0CFC71
:1014300012EB074241EB174112EB0C4251EB1C41FE
:1014400048BF7047921841EB0101A3F101037047B7
:1014500000BFFEE770472DE9F04102460025002657
:10146000002000230024002791F803C00CF00F0592
:1014700091F803C00CF0100CBCF1000F03D091F8F0
:1014800002C04CEA050591F800C0BCF1000F31D054
:10149000146800202BE04FF0010C0CFA00F3B1F8B7
:1014A00000C00CEA03069E4220D183004FF00F0CCF
:1014B0000CFA03F7BC4305FA03FC4CEA040491F868
:1014C00003C0BCF1280F06D14FF0010C0CFA00FC50
:1014D000C2F814C00AE091F803C0BCF1480F05D16E
:1014E0004FF0010C0CFA00FCC2F810C0401C082898
:1014F000D1D31460B1F800C0BCF1FF0F34DD5468E3
:1015000000202EE000F1080C4FF0010808FA0CF35F
:10151000B1F800C00CEA03069E4221D183004FF0CF
:101520000F0C0CFA03F7BC4305FA03FC4CEA040465
:1015300091F803C0BCF1280F05D100F1080C08FA9E
:101540000CF8C2F8148091F803C0BCF1480F07D121
:1015500000F1080C4FF0010808FA0CF8C2F81080EE
:10156000401C0828CED35460BDE8F08100BFFEE7E0
:1015700000BFFEE77047000070B5002100230F2276
:10158000C47804B3154C246804F4E064C4F5E06442
:10159000210AC1F10403CA40447804FA03F18478B3
:1015A0001440214309010E4C0678A155047804F03B
:1015B0001F050124AC4005786D11AD0005F1E02553
:1015C000C5F8004109E0047804F01F050124AC408F
:1015D000044D0678761145F8264070BD0CED00E00C
:1015E00000E400E080E100E002490143024A1160AA
:1015F000704700000000FA050CED00E070470000A5
:1016000029B1064AD2690243044BDA6104E0034A75
:10161000D2698243014BDA6170470000001002403A
:1016200029B1064A92690243044B9A6104E0034AD5
:1016300092698243014B9A6170470000001002409A
:1016400030B500210022002400232D4D6D6805F0E7
:101650000C0121B1042905D0082923D105E0294D29
:10166000056022E0274D05601FE0254D6D6805F4FB
:101670007012234D6D6805F48034022505EB92420B
:101680001CB9214D554305600BE01D4D6D6805F4F7
:1016900000351DB11C4D5543056002E0194D554301
:1016A000056002E0174D056000BF00BF144D6D6876
:1016B00005F0F0010909154D6B5C0568DD404560DA
:1016C0000F4D6D6805F4E061090A104D6B5C4568CB
:1016D000DD4085600A4D6D6805F46051C90A0B4D07
:1016E0006B5C4568DD40C560054D6D6805F44041A3
:1016F000890B074D6B5CC568B5FBF3F5056130BD23
:101700000010024000127A0000093D001C00002079
:101710002C000020704710B500F002F810BD00004A
:101720000CB50020019000903348006840F48030F0
:101730003149086000BF3048006800F40030009074
:101740000198401C0190009818B90198B0F5A06F5D
:10175000F1D12948006800F4003010B10120009058
:1017600001E0002000900098012843D12348006840
:1017700040F01000214908600846006820F003008E
:1017800008600846006840F0020008601A48406897
:10179000194948600846406848600846406840F477
:1017A000806048600846406820F47C104860084625
:1017B000406840F4E81048600846006840F08070D7
:1017C000086000BF0C48006800F000700028F9D0E5
:1017D0000948406820F0030007494860084640680F
:1017E00040F00200486000BF0348406800F00C0071
:1017F0000828F9D10CBD0000001002400020024072
:10180000042808D14FF0E021096941F004014FF0AC
:10181000E022116107E04FF0E021096921F00401A5
:101820004FF0E022116170477047000010B5134877
:10183000006840F0010011490860084640681049FE
:1018400008400E494860084600680E4908400B49A8
:1018500008600846006820F4802008600846406858
:1018600020F4FE0048604FF41F008860FFF753FF2C
:101870004FF000600449086010BD000000100240F5
:101880000000FFF8FFFFF6FE08ED00E010B540F2A3
:101890002551024800F0B9F910BD000000380140A0
:1018A00010B540F22551C34800F0AFF900282CD004
:1018B000C04800F065FAC4B240F22551BD4800F0BE
:1018C00089F9BD48007805287EDDBB4800782A28C4
:1018D0005EDAB9480078032190FBF1F201FB1200B7
:1018E000A0B9B6480078C0EBC001B54808440480F0
:1018F000B1480078401CB0490870B2480078604098
:10190000C0B2B149085CAF49087051E1AA480078FB
:10191000032190FBF1F201FB120001281ED1A74820
:101920000078C0EBC001A6480844008800EB042002
:1019300081B2A2480078C0EBC002A14810440180E7
:101940009D480078401C9C4908709E480078604083
:10195000C0B29D49085C9B49087029E1974800780E
:10196000C0EBC00196480844847094480078401C3D
:101970009249087090480078401C8F49087091483F
:1019800000786040C0B29049085C8E4908700FE151
:10199000894800782A3805287BD2DFE800F0031652
:1019A0002E4058008648801FA0F85A408248007890
:1019B000401C81490870834800786040C0B2824969
:1019C000085C8049087065E065E07D48801FB0F8DC
:1019D0005A0000EB04207A49891FA1F85A00764882
:1019E0000078401C74490870764800786040C0B2A6
:1019F0007549085C734908704CE07148801FA0F875
:101A00005C406D480078401C6B4908706D48007858
:101A10006040C0B26C49085C6A4908703AE06848A6
:101A2000801FB0F85C0000EB04206549891FA1F815
:101A30005C0061480078401C5F490870614800788C
:101A40006040C0B26049085C5E49087022E05C48B2
:101A5000801F80F85E4090F85E005A4909788842FD
:101A60000AD100F0B1F959480088401C5749088054
:101A700001205749087004E05F215148801FFEF79C
:101A8000CEFC00204F4908704B4908704B49087044
:101A900000BF00BF8CE04848007806287ED2DFE80F
:101AA00000F0031C35465C6D542C10D14448801F57
:101AB000047041480078401C3F4908704148007854
:101AC0006040C0B24049085C3E49087004E0002014
:101AD000394908703B49087069E02C2C10D138480E
:101AE000801F447034480078401C334908703548E2
:101AF00000786040C0B23449085C3249087004E0A4
:101B000000202D4908702F49087050E02C48801F94
:101B1000448029480078401C2749087029480078EB
:101B20006040C0B22849085C264908703FE024485C
:101B3000801F408800EB04202149891F48801E48EF
:101B40000078401C1C4908701E4800786040C0B2F4
:101B50001D49085C1B49087029E01948801F8480D2
:101B600015480078401C14490870164800786040F9
:101B7000C0B21549085C1349087018E01048801F6E
:101B8000808800EB04200E49891F88800A4800786D
:101B9000401C094908700B48007800E006E06040EE
:101BA000C0B20949085C0749087000E000BF00BFE7
:101BB00010BD0000004800403E0000204000002012
:101BC0004A0000203F000020FE2D000800000020F9
:101BD0003A00002010B50022002340F66A14A1420A
:101BE00000D100BF0A1201249440A3B2DC43048058
:101BF00010BD21B1828942F40052828104E08289C1
:101C00004DF6FF731A408281704770B5024600247A
:101C100000230025002040F66A16B14200D100BF23
:101C2000C1F3421501F01F03012606FA03F3012D4B
:101C300002D19689334006E0022D02D1168A334044
:101C400001E0968A33400C12012606FA04F4168845
:101C5000344013B10CB1012000E0002070BDF0B59C
:101C60000346002400260025002040F66A17B942EA
:101C700000D100BF1846C1F3421401F01F0601272E
:101C800007FA06F5012C01D10C3004E0022C01D139
:101C9000103000E014301AB107682F43076002E0EB
:101CA0000768AF430760F0BD2DE9F04786B00546F1
:101CB0000E460024A24600BFA1460027B08900B10D
:101CC00000BF2F462C8A4CF6FF700440F088044376
:101CD0002C82AC894EF6F3100440B0883189084359
:101CE000718908430443AC81AC8A4FF6FF4004403D
:101CF000B0890443AC8201A8FFF7A2FC1F488742C9
:101D000002D1DDF810A001E0DDF80CA0A88900F4F4
:101D1000004040B10AEBCA0000EB0A1031684900EC
:101D2000B0FBF1F807E00AEBCA0000EB0A103168DB
:101D30008900B0FBF1F86420B8FBF0F00401200941
:101D4000642101FB1089A88900F4004040B13220D1
:101D500000EBC900B0FBF1F000F00700044308E01D
:101D6000322000EB09106421B0FBF1F000F00F000D
:101D700004432C8106B0BDE8F08700000038014024
:101D800001468888C0F30800704700BFFEE749009D
:101D900050EAC12018BF04204A0D18BF40F00100CE
:101DA00040F2FF72B2EB515F08BF40F00200012821
:101DB00008BF0520704730380A2801D2012070473B
:101DC0000020704700BF70472DE9F04F99B03021D7
:101DD0000DA8FEF746FB4549888800F04FFC0746F2
:101DE0000022434B00F0F2FA054600F0B1FA8246B9
:101DF0003E49B1F85A0000F041FC054600223C4B38
:101E000000F0E4FA074600F0A3FA8346302101A867
:101E1000FEF727FB5946504600F048FF04D23549EB
:101E2000584600F0FBFC834600203349087000242C
:101E300026E0204600F022FE07465146584600F0B4
:101E400067FF80462D4900F057FD0646394600F0F1
:101E500061FE0546514600F0E1FC01A941F824006D
:101E600051F82400234900F021FF08D201A951F8BC
:101E70002400204900F04CFF01A941F82400641C13
:101E80000C2CD6DB4FF000091AE001A850F829000D
:101E90001B4909884944C1EBC1011A4A1144C1F8E0
:101EA0000300C9EBC9011148801D0844008814498A
:101EB00009884944C1EBC1011144088009F10109B5
:101EC000B9F10C0FE1DB0E4800880C300C4908809A
:101ED00008460088B0F5347F04DB0020088001202C
:101EE0000949087019B0BDE8F08F000044000020D7
:101EF000000059400000B4433A0000200000404177
:101F00003C000020A30000203B00002010B56FF033
:101F10000400FFF775FC0A4800680A49B0FBF1F0BD
:101F2000094908700846007800EB4001C1EBC01079
:101F30004FF6FF7101EAC0000449088010BD00009F
:101F40000800002000127A0030000020320000203B
:101F50000146114A12884A434FF0E0235A61002299
:101F60009A611A46126942F001021A6100BF4FF0ED
:101F7000E022106900F001021AB100F48032002A58
:101F8000F5D04FF0E022126922F001024FF0E02379
:101F90001A6100229A6170473200002010B5044691
:101FA0000021204600F082FD02D284F0004010BDE6
:101FB0002046FCE700BF054A128802F04002002AD2
:101FC000F9D0C2B2014B1B1D1A8070470038014086
:101FD0004FF4A060FFF708FBFFF798FF4FF4E130E4
:101FE00000F050F94FF4613000F0F8F8ABE05648DB
:101FF000007801287CD155A0FEF71AF95CA0FEF705
:1020000017F95CA0FEF714F950A0FEF711F958A0DB
:10201000FEF70EF90020624908607CE0604909681B
:10202000C1EBC1015F4A1144D1F80300002100F067
:102030006FFE0746FFF7B2FF044600F0C3FB0546FC
:102040000022594B00F02EFB44D355490968C1EBDF
:10205000C101544A1144D1F80300544900F058FE1C
:102060000746FFF79BFF044600F0ACFB0546002245
:102070004D4B00F017FB2DD349490968C1EBC10155
:10208000484A1144D1F80300494900F041FE07468F
:10209000FFF784FF044600F095FB05460022424B03
:1020A00000F000FB16D33E490968C1EBC1013D4A6F
:1020B0001144D1F803003F4900F02AFE0746FFF71C
:1020C0006DFF044600F07EFB05460022364B00F013
:1020D000E9FA1BD232490968C1EBC101314A114406
:1020E000D1F8030000F06EFB044622460B4600E0E8
:1020F00026E031A0FEF79CF829480068C0EBC0003C
:10210000284A1044018830A0FEF792F8244800685D
:10211000401C2349086022480068B0F5347FFFF670
:102120007DAF0AA0FEF784F811A0FEF781F810A099
:10213000FEF77EF80EA0FEF77BF80020024908703B
:102140000520FFF705FF52E73B0000202A2A2A2A34
:102150002A2A2A2A2A2A2A2A2A2A2A2A2A2A2A2ADF
:102160002A2A2A2A2A2A2A2A2A2A2A2A2A2A2A00F9
:102170000D0A00005375636365737366756C6C7943
:1021800020726563656976656420612063697263A6
:102190006C65206F6620646174610D0A00000000A8
:1021A00004000020A30000200000E03F0000B44233
:1021B0000000344300008743416E676C65206973FB
:1021C0002025332E33662C0044697374616E7420AD
:1021D0006973202564206D6D0D0A000010B586B06E
:1021E000044601210820FFF71BFA01218804FFF7AC
:1021F00007FA4FF48060ADF8140003208DF8160044
:1022000018208DF8170005A91C48FFF724F94FF492
:102210000060ADF8140004208DF8170005A91748D8
:10222000FFF719F927208DF8000000208DF8010034
:1022300001208DF802008DF803006846FFF79CF935
:1022400001940020ADF80800ADF80A00ADF80C00CC
:10225000ADF810000C20ADF80E0001A90848FFF7FA
:1022600023FD012240F225510548FFF7F8FC01212A
:102270000348FFF7BEFC06B010BD0000000C014093
:102280000048004010B586B00446012144F2040025
:10229000FFF7C6F94FF40070ADF8140003208DF875
:1022A000160018208DF8170005A91C48FFF7D3F871
:1022B0004FF48060ADF8140004208DF8170005A9D4
:1022C0001648FFF7C8F825208DF8000003208DF888
:1022D00001008DF8020001208DF803006846FFF729
:1022E0004BF901940020ADF80800ADF80A00ADF8F4
:1022F0000C00ADF810000C20ADF80E0001A9084844
:10230000FFF7D2FC012240F225510548FFF7A7FC58
:1023100001210348FFF76DFC06B010BD0008014025
:102320000038014010B500290AD00878002807D0ED
:1023300005487844FEF784FC002801D0002010BD39
:102340000248784410BD0000820C00007A0C0000A6
:1023500021F00042A2F16052B2F5801F01F000436B
:1023600028BFD2F17F6C0BD95FEA001C43EAC2029E
:1023700042EB507018BF704728BF20F00100704733
:10238000B2F5801FBCBF184670474FEA410C1CF5E0
:10239000001F02D2084600F084BC70B500F0BEF900
:1023A00000000089FFF7F6BF4FF00040A0F5800065
:1023B0007047491058BFC1F140415B1058BFC3F18D
:1023C00040438B42EFF30080704700002DE9C0418D
:1023D00030B4DFF8A0C23CEA111418BF3CEA131471
:1023E00000F0EC8081EA03051CEA111444EAD5747C
:1023F00018BF1CEA131500F0C780A4EB05044FF0CA
:10240000004545EAC12145EAC32341EA505143EA68
:10241000525304F17F74994204F500344FEAC0200E
:102420004FEAC22208BF904200F09C804FEA136539
:102430000FF24016765D4FEA134506FB05F7C7F12C
:10244000807706FB07F74FEAD737A7FB036876428A
:10245000C8F58038A7FB06CE38BFA8F1010807FBF6
:1024600008E64FF0000EA6FB028CE6FB03CEDCF183
:10247000000CCEF1004E38BFAEF1010EA6FB0C5899
:102480004FF000074FF00005E6FB0E87A1FB08C6E2
:10249000A0FB07CE16EB0E0645F10005E1FB076534
:1024A00015F1E04E7EBFA4F580345FEA46066D412B
:1024B00016F1800745F100054FEA17274FEA066637
:1024C00047EA0567A6F1DE46B6F1805F4FEA1525BB
:1024D0001FD9384624F0010C05EBC471BCF1FE6F26
:1024E00001EB0C1102D8F0BCBDE8008124425CBFB6
:1024F00001F5801E9EEAC47F02D4F0BCBDE80081D5
:10250000244238D4F0BCA1F1C041BDE8004100F044
:1025100053B94FEAD22242EA43524FEAD323A7FBF0
:1025200002864FEAD02040EA415007FB03661EEACC
:102530000E0F4FEAD12105FB026658BFA6EB0056ED
:10254000B6EB00564FEA520E4EEAC37E18EB0E0E63
:1025500056EB530EBDD518EB02085E417F1C55F1BA
:102560000005B6E74FF480154FF000074FF0000666
:102570004FF00008ADE7F0BC4FF0000001F1C041A2
:1025800001F00041BDE8008111EA0C1F0CEA1315AF
:1025900000D00CE013EA0C1F00F025804FF0000083
:1025A000F0BC81EA030101F00041BDE80081F0BC0C
:1025B000BDE8004181EA030100F0FEB8F0BCBDE8CF
:1025C000004170B500F0AAF8097EFC3E00F007B8A3
:1025D00081EA03014FF0000001F00041704781EAF9
:1025E000030100F0E9B8F0BCBDE800414FF0000085
:1025F00021497047FFFDFBF9F7F5F4F2F0EEEDEB42
:10260000E9E8E6E4E3E1E0DEDDDBDAD8D7D5D4D3F0
:10261000D1D0CFCDCCCBCAC8C7C6C5C4C2C1C0BF3C
:10262000BEBDBCBBBAB9B8B7B6B5B4B3B2B1B0AF42
:10263000AEADACABAAA9A8A8A7A6A5A4A3A3A2A126
:10264000A09F9F9E9D9C9C9B9A99999897979695E1
:1026500095949393929191908F8F8E8E8D8C8C8B7D
:102660008B8A898988888787868585848483838205
:10267000828181800000FF070000F87FB0FA80F3BC
:1026800010FA03F10AD0C3F11D0303F580634FEA8A
:1026900041504FEA035202EBD12170474FF0000046
:1026A0007047000051EA030C17D41CF5801F58BF77
:1026B000BCF5801F00F10680994218BF704708BF23
:1026C0009042704707D711F5801F58BF13F5801F40
:1026D00019D499427047894270471CF5801F08D56C
:1026E000BCF5801FF7D58B4218BF704708BF8242E8
:1026F00070474FF4001C1CEB410F38BF1CEB430F1D
:1027000001D28B42704770B500F008F8922449005E
:102710004FF000514FF08053FFF74BBE0EF1020E09
:102720002EF0030E5EF8046B364205D4012A43EB0B
:10273000030515F5001F12D8012841EB010C1CF50B
:10274000001F0CD80ED14FEAD17C15F5001F0CEB01
:102750004C0C0CF1020C08BF4CEBD37C04E04FF0A6
:10276000080C01E04FEAD37C0CEB4C0526FA05F689
:1027700006F00706B6F1040C06D20EEB860CBDE897
:1027800070404CF0010C6047DFE80CF0090B0202CE
:102790004FF000414FF00000A1F5002170BD194637
:1027A0001046012851EB010418BFD4F5001484BF72
:1027B000002001F0004170BD0808A0F500114FEAAB
:1027C0003101704743004FEAD30C4FEA3C0C4340C1
:1027D0001FBF40070CF1605113F0FE4F70471CF013
:1027E000006F03D100200CF0004170470CF0004353
:1027F00043EA507010B540EACC0000F00CFA00BF7C
:10280000000000924FEA0001FFF7D6BF4FF00041F1
:102810004FF00000A1F500217047000090EA010F81
:1028200048BF81F0004100F17A82421A3CBF801A11
:1028300089184FEAD0524FF07F4C1CEA410FA2EBAF
:10284000D15318BF9CEA026F00F03B804FF0004C60
:102850004CEA00204CEA012121FA03FC10EB0C0C9D
:102860001ED202F1FF325FEA1C2040EBC25038BF9B
:1028700070471CF07F0F4FEA400C18BFBCF17F4F30
:1028800038BF7047C3F12003994008BF20F0010012
:10289000BCF17F4F38BF7047A0F1C04000F001BAD3
:1028A0004FEA3C00000A40EBC25028BF1CF0FF0F6B
:1028B0004FEA400CE6D018BFBCF17F4F38BF7047DD
:1028C000EAE79CEA026F05D010EA5C0F08BF00F04F
:1028D0000040704710B500F09EF900BF64FBBE3E9B
:1028E000401058BFC0F14040491058BFC1F14041AD
:1028F0008142EFF3008070474FF47F0C1CEAD01246
:102900001EBF1CEAD11392EA0C0F93EA0C0F00F0E1
:10291000858090EA010F48BF42F4807240F4000CB9
:1029200041F400002CF07F4120F07F4000B581424F
:10293000A2EB03020FF2081CACEB504EC0F10000FA
:102940009EF800E04FEA4E0E00FB0EFC38BF490037
:102950004FEA2C1C02F5FA020CFB0EF34FEACE1ED6
:102960004FEA112C4FEAC1210EEB635E42EB22428B
:102970000EFB0CFC4FEA1C5300FB03114FEA112C19
:102980004FEA01310EFB0CFC4FEADC4C00FB0C1152
:10299000C14228BF09184CEB03335DF804EB10EB80
:1029A000410143EBC250B2F57C0F38BF704729D5C7
:1029B00012F0F00F1CBF00F1C04000F00040704763
:1029C000008182838485868788898B8C8D8E8F9108
:1029D0009293959697999A9C9D9FA0A2A3A5A7A82C
:1029E000AAACAEB0B2B3B5B7B9BCBEC0C2C5C7C958
:1029F000CCCED1D4D7D9DCDFE2E6E9ECF0F3F7FABC
:102A0000FE0000004FEA400C0CF1807CBCF17E4FD0
:102A100028BF7047B0F1C04000F043B990EA010F01
:102A20000CEAD11348BF42F48072624538BF634557
:102A300007D213F47F0F16D080EA010000F00040A7
:102A4000704710B500F0E7F8097EFC3E00F005B8CD
:102A500080EA010000F00040704780EA010000F0C9
:102A6000004000F01EB912F47F0F04BF0248704707
:102A700080EA010000F015B90000C07F10F00041AD
:102A800048BF4042B0FA80F310FA03F2C3F19D034D
:102A90000BD051EAC35101EB1220530638BF7047E7
:102AA00000F1010008BF20F00100704750EA010C5E
:102AB00000F113801CF5000F58BFBCF5000F01D4C6
:102AC0008842704707D710F5000F58BF11F5000F67
:102AD00015D488427047894270471CF5000F04D511
:102AE000BCF5000FF7D5814270474FF0807C1CEB9E
:102AF000400F38BF1CEB410F01D28142704710B527
:102B000000F089F8922449004FF000504FF08051B6
:102B1000FFF7E6BE4FF47F0C1CEAD0121EBF1CEA82
:102B2000D11392EA0C0F93EA0C0F00F0478090EA61
:102B3000010F48BF42F480724FF0004C4CEA002075
:102B40004CEA012102EB0302A0FB0113A2F50002F3
:102B5000002918BF43F001035B0028BF4FEA33038D
:102B600042EB22425FEA132C4CEBC2502EBFBCEB6F
:102B7000436FB2F57C0F70474FEA036CBCF1004F16
:102B800008BF20F00100B2F57C0F38BF70470BD5AD
:102B900082F0FF0212F5803FC8BF704700F1C040CD
:102BA000D8BF00F00040704700F5000C5FEA4C0C05
:102BB00048BF7047B0F1C04000F073B890EA010F11
:102BC0000CEAD11348BF42F48072624538BF6345B6
:102BD00004D280EA010000F00040704710B500F018
:102BE0001AF800BF8900013E00F007B800F009B8EC
:102BF0005FEA410C5FEA1C6C08D080EA010000F03B
:102C000050B85FEA400C5FEA1C6CF6D14FF0004010
:102C1000A0F5800070470EF1020E2EF0030E5EF854
:102C2000044B244204D44FEA4102B2F17F4F11D841
:102C30004FEA4003B3F17F4F0CD80ED14FEAD07C5E
:102C4000B2F17F4F0CEB4C0C0CF1020C08BF4CEBBB
:102C5000D17C04E04FF0080C01E04FEAD17C0CEB92
:102C60004C0324FA03F404F00704B4F1040C06D274
:102C70000EEB840CBDE810404CF0010C6047DFE81F
:102C80000CF0070802024FF00040A0F5800010BDD4
:102C90000846420018BFD2F1807288BF00F00040A1
:102CA00010BDFF2141EAD050C005704751EA000C29
:102CB00000F113801CF5000F58BFBCF5000F01D4C4
:102CC0008142704707D711F5000F58BF10F5000F6C
:102CD00015D481427047894270471CF5000F04D516
:102CE000BCF5000FF7D5884270474FF0807C1CEB95
:102CF000410F38BF1CEB400F01D28842704780EA79
:102D0000010081EA000180EA0100FFF7F8BE00003F
:102D100090EA010F48BF81F000413FF586AD421AAD
:102D200004D882F00042A0EB020011444FEAD052D6
:102D30004FF07F4C1CEA410FA2EBD15318BF9CEA25
:102D4000026F4AD04FF0004C4CEA00204CEA0121BF
:102D500021FA03FCB0EB0C0C0FD412F0FE0F36D0AE
:102D60005FEA4C001DD5001240EBC25038BF7047DF
:102D70001CF03F0F18BF70470BE0A2F101025FEAA1
:102D80001C2040EBC25038BF70471CF07F0F18BFAB
:102D90007047C3F12003994014BF401E20F001008A
:102DA000704780084FEA122308BF7047B0FA80FCD2
:102DB000A2EB0C02CCF1280C60FA0CF093EA122F73
:102DC00004BF00EBC25070474FEAC3707047130A4C
:102DD0005FEADC1008BF7047F6E79CEA026F04D098
:102DE00010EA5C0F08BF0020704710B5FFF713FF13
:102DF00040DFF63E81F000407047FDF78FBC004D8C
:102E00009AD77934E3AEF2BF68258BC6115CA9E48A
:102E1000337ED09D4A075B16C18C226FB8F51F52D6
:102E200085C8662BFCB1EDA0773A94D90E43B6FB6A
:102E30002C61CF8255184409DE933D70A7EA3E739A
:102E4000A4E9470ADD90CC81561BB5F82F6297DACA
:102E50000D40EEA374396528FFB21C5186CB216C5E
:102E6000BBF65815C28FD39E4904AAE7307D88C5AA
:102E7000125FF1BC6B267A37E0AD034E99D47C31FA
:102E8000E6AB05489FD28EC31459F7BA6D20D5988A
:102E90004F02ACE1367B276ABDF05E13C489632E16
:102EA000F9B41A5780CD91DC0B46E8A5723FCA876A
:102EB000501DB3FE29643875A2EF410CDB96420F1A
:102EC000D8953B76A1ECB0FD2A67C984531EEBA6CA
:102ED000713C92DF0845195483CE602DFAB75D101E
:102EE000C78A2469BEF3AFE23578D69B4C01F4B9AA
:102EF0006E238DC0175A064B9CD17F32E5A8000087
:102F000002400000000000A000000000054000009A
:102F1000000000C8000000000C4000000000409CC1
:102F200000000000194000000020BCBE00000000AE
:102F300034400000BFC91B8E00000004B5400000F3
:102F4000504BCFD06607E2CF010000006C4100007B
:102F50003E8251AADFEEA73401000000D9420000F2
:102F6000DCB5A0E23A301F97FFFFFFFFB445000039
:102F7000FD25A0C8E9A3C14FFFFFFFFFFF3F0000F1
:102F80000000008000000000FF3F00000000008003
:102F900000000000D02F00080000002044000000C6
:102FA0006C01000814300008440000208432000046
:102FB000880100081C00000043000000F8FFFFFF2C
:102FC0000C0000000E0000000F0000002E000000AA
:102FD000000000000000000000A24A040000000001
:102FE00000000000010203040607080900000000B9
:102FF000010203040102030406070809020406088B
:1030000000000000000000000000000000000000C0
:0430100000000000BC
:0400000508000131BD
:00000001FF
