:020000040800F2
:10000000C81C002049020008D51500088D150008FD
:10001000D1150008AD1400081B1E000800000000E8
:10002000000000000000000000000000B117000800
:10003000B11400080000000065160008C918000887
:1000400063020008630200086302000863020008FC
:1000500063020008630200086302000863020008EC
:1000600063020008630200086302000863020008DC
:1000700063020008630200086302000863020008CC
:1000800063020008630200086302000863020008BC
:1000900063020008630200086302000863020008AC
:1000A000630200086302000863020008630200089C
:1000B000630200086302000863020008630200088C
:1000C000630200086302000863020008630200087C
:1000D000630200086302000863020008630200086C
:1000E000630200086302000863020008630200085C
:1000F000630200086302000863020008630200084C
:10010000630200086302000863020008630200083B
:100110006302000835190008630200086302000842
:10012000630200086302000863020008630200081B
:10013000630200086302000863020008630200080B
:1001400063020008630200086302000863020008FB
:1001500063020008630200086302000863020008EB
:1001600063020008630200086302000863020008DB
:1001700063020008630200086302000863020008CB
:10018000630200086302000800F002F800F04CF877
:100190000AA090E8000C82448344AAF10107DA45E2
:1001A00001D100F041F8AFF2090EBAE80F0013F0E8
:1001B000010F18BFFB1A43F0010318472C2A000057
:1001C0004C2A0000103A24BF78C878C1FAD85207E8
:1001D00024BF30C830C144BF04680C6070470000C1
:1001E0000023002400250026103A28BF78C1FBD840
:1001F000520728BF30C148BF0B607047662902F024
:100200002684642900F07680002070471FB502F034
:1002100014FC00F0F9FB04000020002102F04CF96E
:10022000E0601FBD10B510BD00F00AFD1146FFF7DC
:10023000EDFF01F043FF00F028FD03B4FFF7F2FFEC
:1002400003BC01F00BFE0000094880470948004745
:10025000FEE7FEE7FEE7FEE7FEE7FEE7FEE7FEE776
:10026000FEE7FEE704480549054A064B70470000D3
:10027000CD18000889010008C8160020C81C0020FD
:10028000C8180020C8180020704700000FB40449A7
:1002900010B503AA029800F0A5FB10BC5DF814FB92
:1002A0001400002070B5044685690068C10601D5B8
:1002B000302600E02026C00707D070BDD4E9012118
:1002C00030469047206A401C20626D1EF6D570BDF6
:1002D00070B5044685690078C00707D170BDD4E9C0
:1002E000012120209047206A401C20626D1EF6D517
:1002F00070BD00002DE9F041064600241068752904
:10030000314616A510D0AFF30080002802DA404233
:1003100013A507E031688A0701D512A502E0490755
:1003200004D511A5012401E0AFF3008000210A22C9
:1003300006F1240709E0B0FBF2FCB0FBF2F302FB8C
:100340001C00303078541846491C0028F3D123464D
:100350002A463046BDE8F04100F0DCB8000000005D
:100360002D0000002B000000200000002DE9F047C8
:100370004FF0000A89460446C0F820A02046E168F4
:100380008847002876D0252806D0D4E90121904757
:10039000206A401C2062F1E7E1682046002588477A
:1003A000C4F81CA006460027C4F818A02A2E09D0BD
:1003B000304601F04CFD38B304EB8708303EC8F8F6
:1003C000186019E059F8041B204604EB870291617C
:1003D000E1688847012F064618D1E069002820DA35
:1003E00025F020051DE0D8F8180000EB800006EB92
:1003F00040003038C8F818002046E16888470646B3
:1004000001F025FD0028EED1012F0AD02E2E08D1B3
:100410002046E16888477F1C0646022F45F02005EC
:10042000C4DBA069002803DA404245F00105A06161
:10043000E80701D025F01005B6B1A6F14100192852
:1004400002D8203645F400654A46314620462560EC
:100450004D46FFF7D3FE58B1012806D0ED1D25F01B
:10046000070000F1080989E704E005F1040985E7C0
:1004700030468AE7206ABDE8F0874FF00002042981
:10048000C0F0128010F0030C00F01B80CCF1040CC3
:10049000BCF1020F18BF00F8012BA8BF20F8022BF7
:1004A000A1EB0C0100F00DB85FEAC17C24BF00F89D
:1004B000012B00F8012B48BF00F8012B70474FF0CB
:1004C000000200B5134694469646203922BFA0E8A4
:1004D0000C50A0E80C50B1F12001BFF4F7AF0907B0
:1004E00028BFA0E80C5048BF0CC05DF804EB8900A1
:1004F00028BF40F8042B08BF704748BF20F8022BE4
:1005000011F0804F18BF00F8012B704770477047FB
:10051000704770472DE9F0470D46994692460446CC
:1005200000F124080168880604D5E06921F0100173
:10053000216000E00120A84201DD471B00E0002708
:10054000A1697A1902EB0900081AA0612078C00697
:1005500002D42046FFF7A6FE002608E0D4E90121D8
:100560001AF806009047206A401C761C20624E450F
:10057000F4DB2078C0060AD52046FFF793FE06E09C
:10058000D4E9012130209047206A401C2062381EA7
:10059000A7F10107F4DC07E0D4E9012118F8050010
:1005A0009047206A401C2062281EA5F10105F3DC5B
:1005B0002046FFF78DFE2078000602D50220BDE818
:1005C000F0870120FBE770472DE9FF4F0C461E46E0
:1005D0004FF0FF378BB0D2E90001DDF860800A9060
:1005E0008A46C1F30A5505B93D46002108464FF039
:1005F0000000BAF1000F00F4400005DA00EB8000C3
:100600004FF4400101EA50004FEA9059B9F1010F4F
:1006100000DDB9460A9850EA4A000ED044F6105060
:10062000A5F2FF3545432F14B8F1000F1ED07542D7
:10063000291E1EDDC9F100021CE0B8F1010F4FF0C8
:10064000000001D0302103E0F24305E02154401CBA
:10065000B042FBDB30460022002121540B99C1F847
:100660000880C1E900200FB0BDE8F08FBD1B6D1CF4
:10067000DEE74A4600DA694206A800F067FA06ABF0
:1006800093E8070003AB83E8070050460A9900F09F
:1006900045FB8DE80700A0F500501F380090039837
:1006A000002D0ADD42F21F014A460844002303A937
:1006B0000390684600F0AEFD09E0A0F500504A4600
:1006C0001F38002303A90390684600F0B8FD8DE8A9
:1006D00007000004000C03D04FF0FF30410800E099
:1006E0001046B8F1000F03D00022009215461EE01C
:1006F000751E05D400F08CF9303262556D1EF9D5A7
:10070000B3460122084302D000227F1C04E0207877
:10071000302801D100227F1E002A099784D01DE0D5
:10072000112D07DA00F074F9303262556D1C50EA71
:100730000102F5D1084302D00098C8B10EE00021B3
:10074000681E05E0235C625C63542254401E491C11
:100750008142F7DBAB46A81B401E0990002004F83D
:100760000B000B98099AC0F80880C0E9002B7AE7C3
:1007700011264FF0000857E72DE9F04F8846044650
:10078000D21D22F0070191B0D1E90001CDE90A01A3
:1007900001F045FB02460B98C00F01D02D2007E069
:1007A0002068810701D52B2002E0202101EAC0004A
:1007B000032A099001D0072A05DB0346414620465B
:1007C00000F084F90BE12078800601D5E06900E0B3
:1007D0000620B8F1650F814606D0B8F1660F18D033
:1007E000B8F1670F70D131E00020B9F1110F00901E
:1007F00001DB112301E009F101030AAA01A90CA8F8
:10080000FFF7E2FEDDE90C70002609F101058346E1
:1008100047E001204B4600904FF000470AAA01A98B
:100820000CA8FFF7D1FEDDE90DB00C995D4600265E
:1008300010B909F101000D18B9EB050003D4C0F19E
:10084000FF3609F10105A5EB09002BE0B9F1010F15
:1008500001DA4FF001090020B9F1110F009048466C
:1008600001DD112300E003460AAA01A90CA8FFF745
:10087000ABFEDDE90C704D4600268346207800076C
:100880000AD4AB4500DA5D4601A8012D04DD41190B
:1008900011F8011C302907D04F4502DA17F1040F77
:1008A00004DA012082460FE06D1EEEE7002F02DC25
:1008B000ED1B3E4403E0781CA84200DD7D1CB81B04
:1008C00000F1010A4FF000472078000703D4AA4541
:1008D00001DB4FF0FF3A0021B7F1004F0DF1430863
:1008E0008DF8431024D002202B23002F01DA7F4201
:1008F0002D230A21021EA0F1010000DC5FB197FB4D
:10090000F1FC97FBF1F201FB1C7C17460CF1300C5B
:1009100008F801CDEEE7A8F1010003702188090570
:1009200001D5452100E06521A0F1010800F8011C76
:1009300009980FA9A1EB0807FF1D00B1012041197B
:1009400001EBEA70A1693844081A401EA0612078C2
:10095000C00602D42046FFF7A5FC099828B1D4E9C7
:1009600001219047206A401C20622078C00622D5D1
:100970002046FFF797FC1EE0002E04DBB34502DDA6
:1009800001A8805D00E03020D4E901219047206A71
:10099000401C2062761CAAF101005FEA000A0AD11D
:1009A00000F032F8C0680168405CD4E9012190474A
:1009B000206A401C2062281EA5F10105DCDC07E04E
:1009C000D4E9012118F8010B9047206A401C2062ED
:1009D000381EA7F10107F3DC2046FFF779FC03205E
:1009E00011B041E6074B70B50D467B4400F05BF853
:1009F0000446284600F01CF910B14FF0FF3070BDDE
:100A0000204670BDB31600000048704788160020CD
:100A100030B5B0F10A024FEA900E71F100034EEAD0
:100A2000817EB0EB0E0061EB91014FEA101E4EEAA1
:100A3000017E10EB0E0041EB11114FEA102E4EEA31
:100A4000016E10EB0E0041EB11214FEA104E4EEA01
:100A5000014E10EB0E0041EB1141401841F1000135
:100A60004FEAD00040EA41704FEAD10110EB800517
:100A70004FEA810444EA907444EB01046D1944EB9D
:100A80000404521BA3414FF0000348BF0A3200D5B3
:100A900030BD401C41F1000130BD000001694A1C1D
:100AA00002610878704700B58FB0CDE901310021AF
:100AB000059105497944CDE9031011466846FFF7D1
:100AC00055FC0FB000BD0000E5FFFFFF2DE9F04130
:100AD0001F46044603260168072A01F4006004DB70
:100AE00008B116A505E016A503E008B115A500E0BC
:100AF00015A521F010002060A069C01EA0610FB1F3
:100B0000401EA0612046FFF7CDFB4FB1D4E9012183
:100B100038469047206A401C2062C01C206206E0D4
:100B2000206AFAE7D4E9012115F8010B9047761EF7
:100B3000F8D22046FFF7CCFBBDE8F0814E414E00D5
:100B40006E616E00494E4600696E66002DE9F04701
:100B5000814616468AB0354878440DC88DE80D00A8
:100B600032487844801C03AC0DC884E80D0041F67F
:100B70009B300844372190FBF1F290FBF1F5A5F191
:100B8000800501FB12041B3C02D56442012000E0F9
:100B90000020DFF898A080460027FA44AAF1BE0A98
:100BA0000EE0E0070AD03246684607EB4701012312
:100BB0000AEB810100F043FB8DE8070064107F1C05
:100BC000002CEED1194F7F44AE3F19E0E80715D055
:100BD00007EB04100DF1180A90E80E008AE80E00E9
:100BE000C068F04201D1981908903246012306A945
:100BF00003A800F024FB03AB83E807006D10641C1E
:100C0000002DE3D14FF0010332466946B8F1000FE1
:100C100003A802D000F0FEFA01E000F010FBC9E9E1
:100C20000001C9F808200AB0BDE8F0877420000070
:100C3000007B00F080007047004870476816002075
:100C40007546FFF7F9FFAE4605006946534620F0AA
:100C50000700854618B020B5FFF704FBBDE820402B
:100C60004FF000064FF000074FF000084FF0000B68
:100C700021F00701AC46ACE8C009ACE8C009ACE81B
:100C8000C009ACE8C0098D46704710B50446AFF303
:100C900000802046BDE81040FFF7CFBA4FF0013C7E
:100CA00050F8042B51F8043B9A4221D1A2EB0C03DB
:100CB000934313EACC1317D150F8042B51F8043B9B
:100CC0009A4215D1A2EB0C03934313EACC130BD138
:100CD00050F8042B51F8043B9A4209D1A2EB0C03C3
:100CE000934313EACC13DBD04FF00000704700BFF2
:100CF000D01A01BAB1FA81F101F0180122FA01F01B
:100D0000CB40C1F12001DBB2C0B2C01A2CFA01F312
:100D1000D11A914311EAC311E6D170475FEA400C42
:100D200008BF91F0000F4FEA8C234FEAC12243EA3B
:100D300051514FEA1C5018BF00F5F0404FEA300007
:100D400018BF41F000415FEA6C5C00F02980BCF103
:100D5000FF3F08BF40F080407047130C06BF1204ED
:100D60004FF0100C4FF0000C130E04BF12020CF1E8
:100D7000080C130F04BF12010CF1040C930F04BFF5
:100D800092000CF1020CD30F04BF52000CF1010CC5
:100D900011464FF00002A0F11F00A0EB0C007047BD
:100DA00011F0004F08BF704731F000413FF4D5AF5C
:100DB0000B0C06BF09044FF0100C4FF0000C0B0E8B
:100DC00004BF09020CF1080C0B0F04BF09010CF160
:100DD000040C8B0F04BF89000CF1020CCB0F04BF75
:100DE00049000CF1010CCCF12003A0EB0C0022FA1D
:100DF00003F302FA0CF241EA030100F1010070472B
:100E000020F07F4C80EA030023F07F47ACEB070320
:100E100003F57C5300F0004003F1FF032DE9804906
:100E20004FEA154B09B44FEA144325EA0B4E24EA66
:100E300003480FF2042606EB132749083E785FEAC1
:100E4000320203FB0667C7F5000707FB06F64FEA09
:100E500054374FEAD64606F1020607FB066CCCF182
:100E6000005C4FEA1C472CEA074C07FB06F40CFB1E
:100E700006F504EB15464FEA961634BF00204FF0F6
:100E800000404FEAD13706FB07FC4FEA1C4C0CFB35
:100E90000BF7D21B03FB0CF761EB07010CFB0EF702
:100EA000B0EB074072EB17420CFB08F734BFA2EB24
:100EB0000742B2EB074261EB17414FEA0C444FEA9D
:100EC000910706FB07FC4FEA1C4C0CFB0BF7B0EB41
:100ED000C74072EB573203FB0CF734BFA2EBC7429B
:100EE000B2EBC74261EB57310CFB0EF7B0EBC7001A
:100EF00072EB57720CFB08F734BFA2EBC702B2EBE0
:100F0000C70261EB5771039F4FEA816141EA921179
:100F100004EBCC044FEAD1374FEA826206FB07FCB0
:100F200042EA90124FEA80604FEA1C4C0CFB0BF730
:100F3000D21B03FB0CF761EB07010CFB0EF7B0EBC8
:100F4000074072EB17420CFB08F734BFA2EB0742D5
:100F5000B2EB074261EB17414FEA8C554FEA91071C
:100F600004EB9C2406FB07FC4FEA1C4C0CFB0BF724
:100F7000B0EBC74072EB573203FB0CF734BFA2EB68
:100F8000C742B2EBC74261EB57310CFB0EF7B0EB37
:100F9000C70072EB57720CFB08F734BFA2EBC70215
:100FA000B2EBC70261EB577115EB4C254FEA81613B
:100FB00041EA92114FEA82624FEAD13742EA901237
:100FC00006FB07FC44F100044FEA80604FEA1C4C2A
:100FD0000CFB0BF7D21B03FB0CF761EB07010CFBBF
:100FE0000EF7B0EB074072EB17420CFB08F734BF6B
:100FF000A2EB0742B2EB074261EB174115EB1C1560
:101000004FEA813141EA92414FEA823242EA90420C
:101010004FEA80304FEA0C7644F1000448EA03437B
:101020004EEA0B484FF0000EB2EB080C71EB0307D1
:1010300024BF624639464EEB0E0E4FF0000B0018EF
:10104000524149414BEB0B0BB2EB080C71EB030720
:101050007BF1000B24BF624639464EEB0E0E4FF07B
:10106000000B0018524149414BEB0B0BB2EB080C43
:1010700071EB03077BF1000B24BF624639464EEB50
:101080000E0E51EA020718BF46F0010616EB0E7667
:1010900055F1000254F1000103D5BDE88901BDE816
:1010A0000088BDE88901BDE80048B619524141EB0E
:1010B0000101A3F10103704780807F7E7D7C7B7AF4
:1010C0007978777676757473727171706F6E6E6DF4
:1010D0006C6C6B6A6A69686867666665646463639A
:1010E00062616160605F5F5E5E5D5D5C5C5B5B5A20
:1010F0005A5959585857575656555555545453538D
:1011000052525251515050504F4F4F4E4E4D4D4DE7
:101110004C4C4C4B4B4B4A4A4A4949494848484732
:101120004747474646464545454444444443434370
:101130004342424242414141002B9C4630D4770019
:101140002BD01CB54FEA370703B44FF010004FF017
:101150001001BAF1000F06D0BCF1000FDCBF40F067
:10116000080040F008014FF000000FBCBDE810403F
:101170000BF1010BBBF1010F08BF5FEA170722BF9C
:1011800012F1010211F101014FF0004143F100039E
:1011900000F0004043EA00007047F9D35708D0E759
:1011A00046EA064613F1400F4FEA16461FDD13F1DB
:1011B000200FDFBF16430A46002120335B42BED01A
:1011C000C3F1200746EA064602FA07F74FEA164639
:1011D00046EA0706C3F1200722FA03F201FA07F7ED
:1011E00021FA03F14FF0000342EA0702A7E746EABB
:1011F000020646EA06464FEA164646EA0106BCBF24
:1012000046EA0646360C4FF000034FF000024FF05E
:10121000000194E72DE9804C9A46934670B491E81A
:10122000380007C831EA400C48BF34EA430C03D504
:10123000FFF7E6FDFFF780FFF0BCBDE8008C2DE96D
:10124000804C9A46934670B491E8380007C810F075
:10125000804F08BF13F0804F03D100F005F8FFF76F
:101260006BFFF0BCBDE8008C20F07F4780EA0300F4
:1012700023F07F4C07EB0C03A3F57C5300F00040F8
:10128000A3F1FE0392F0000F00F0B38095F0000F81
:1012900000F077802DE901494FEA11404FEA1446EA
:1012A00021EA004800FB06FC24EA064708FB06F694
:1012B00007FB08F800FB07F718EB06484CEB164C49
:1012C0004FEA124B18EB07484FEA15464CEB174014
:1012D00022EA0B4E0BFB06FC25EA06470EFB06F640
:1012E00007FB0EFE0BFB07F71EEB064E4CEB164CF6
:1012F0004FF000061EEB074E4CEB174B18EB0B089C
:1013000040F1000018EB0E0B58EB000840F1000014
:101310008F1A4FF000013CBFC943661B14BFB5EBE9
:10132000040C00213CBFC943F61B4FEA17444EEAA8
:101330008E0E27EA04454FEA1C4704FB07622CEA9D
:10134000074C05FB07F70CFB05F604FB0CFC16EB42
:10135000074642EB174216EB0C4642EB1C421BEBD6
:10136000060658EB0202414146EA9E0601D5BDE859
:101370000189B619524141EB0101A3F10103BDE816
:1013800001894FEA14454FEA114724EA054621EA4C
:10139000074C05FB07F406FB07F70CFB06F105FB02
:1013A0000CFC11EB074144EB17444FEA124711EBD9
:1013B0000C4144EB1C4422EA074C05FB07F206FBF8
:1013C00007F70CFB06F605FB0CFC16EB074642EB99
:1013D000174216EB0C4642EB1C456A1854F100010B
:1013E00048BF7047B619524141EB0101A3F1010317
:1013F000704795F0000F37D04FEA11424FEA14477B
:1014000021EA024624EA074C02FB07F106FB07F734
:101410000CFB06F402FB0CFC14EB074441EB1741F8
:101420004FEA154714EB0C4441EB1C4125EA074CED
:1014300002FB07F506FB07F70CFB06F602FB0CFCAC
:1014400016EB074645EB174516EB0C4645EB1C42E1
:10145000121951F1000148BF7047B619524141EBD2
:101460000101A3F1010370474FEA14454FEA114708
:1014700024EA054621EA074C05FB07F106FB07F7BE
:101480000CFB06F24FF0000605FB0CFC12EB0742CA
:1014900041EB174112EB0C4251EB1C4148BF704726
:1014A000921841EB0101A3F10103704700BFFEE771
:1014B0007047F0B50A4600210023002400BF3DE03C
:1014C000012505FA01F3156805EA03049C4234D1AD
:1014D00005684F000326BE40B543056015794E00F0
:1014E000B5400668354305601579012D02D01579A0
:1014F000022D16D185684F000326BE40B543856096
:1015000055794E00B54086683543856045680126AB
:101510008E40B5434560456896798E40B6B23543F6
:101520004560C5684F000326BE40B543C560D57908
:101530004E00B540C6683543C560491C1029BFD36D
:10154000F0BDF0B5002300244D07ED0E02FA05F3BF
:10155000CE1000F1200555F826504E07F70E0F2645
:10156000BE40B543CF1000F1200646F82750CE10FC
:1015700000F1200555F8265045EA0304CE1000F18D
:10158000200545F82640F0BD0183704700BFFEE707
:101590001CB50121102000F067F84FF48060009026
:1015A00001208DF8040000208DF8060003208DF83E
:1015B000050001208DF8070069460448FFF779FF10
:1015C0004FF480610148FFF7DFFF1CBD00100240AF
:1015D00000BFFEE77047000070B5002100230F2216
:1015E000C4781CB3174C246804F4E064C4F5E064C8
:1015F000C4F30721C1F10404E3B20A4144789C40DA
:10160000E1B28478144021430C07210E0E4C05787A
:101610006155047804F01F050124AC4005786D1174
:10162000AD0005F1E025C5F8004109E0047804F0BB
:101630001F050124AC40054D0678761145F826407B
:1016400070BD00000CED00E000E400E080E100E08F
:1016500002490143024A1160704700000000FA0588
:101660000CED00E07047000029B1064A1268024301
:10167000044B1A6004E0034A12688243014B1A606B
:10168000704700003038024029B1064A1268024310
:10169000044B1A6004E0034A12688243014B1A604B
:1016A000704700004038024029B1064A12680243E0
:1016B000044B1A6004E0034A12688243014B1A602B
:1016C0007047000044380240F0B500210022002499
:1016D000022500260223324F3F6807F00C0121B19A
:1016E000042905D0082937D105E02E4F076036E0E0
:1016F0002D4F076033E02A4F3F1F3F68C7F38056E6
:10170000274F3F1F3F6807F03F036EB1264FB7FBDF
:10171000F3F7DFF88CC0ACF1040CDCF800C0CCF3BC
:10172000881C07FB0CF40CE01E4FB7FBF3F7DFF847
:1017300070C0ACF1040CDCF800C0CCF3881C07FBD3
:101740000CF4174F3F1F3F68C7F301477F1C7D0014
:10175000B4FBF5F7076002E0124F076000BF00BF5F
:101760000F4F3F6807F0F0010909104F7A5C0768D6
:10177000D74047600A4F3F6807F4E051890A0B4F92
:101780007A5C4768D7408760054F3F6807F460413F
:10179000490B064F7A5C4768D740C760F0BD000030
:1017A000083802400024F40000127A0018000020DB
:1017B000704700000CB5002001900090344800688C
:1017C00040F480303249086000BF3148006800F4BE
:1017D000003000900198401C0190009818B90198C1
:1017E000B0F5A04FF1D12A48006800F4003010B1E4
:1017F0000120009001E0002000900098012846D1CF
:1018000023484030006840F0805021494031086052
:101810002048006840F440401E4908601C480830D9
:1018200000681B49083108600846006840F4004021
:1018300008600846006840F4A05008601648091F78
:101840000860081F006840F08070091F086000BF32
:101850000F48006800F000700028F9D040F20570D1
:101860000E4908600A480830006820F00300084963
:10187000083108600846006840F00200086000BFB8
:1018800003480830006800F00C000828F8D10CBDAF
:10189000003802400070004008544007003C0240FD
:1018A000042808D14FF0E021096941F004014FF00C
:1018B000E022116107E04FF0E021096921F0040105
:1018C0004FF0E022116170477047000010B51548D5
:1018D000006840F47000134908601348006840F045
:1018E00001001149086000200F49083108600E48C6
:1018F00000680E4908400C4908600D48091D086041
:10190000081F006820F48020091F08600020064995
:101910000C310860FFF74EFF4FF00060014980393D
:10192000086010BD88ED00E000380240FFFFF6FEC1
:101930001030002410B540F22551C34800F0AFF933
:1019400000282CD0C04800F063FAC4B240F2255100
:10195000BD4800F089F9BD48007805287EDDBB4808
:1019600000782A285EDAB9480078032190FBF1F26A
:1019700001FB1200A0B9B6480078C0EBC001B54821
:1019800008440480B1480078401CB0490870B2484F
:1019900000786040C0B2B149085CAF49087051E1BD
:1019A000AA480078032190FBF1F201FB1200012804
:1019B0001ED1A7480078C0EBC001A64808440088A3
:1019C00000EB042081B2A2480078C0EBC002A1481D
:1019D000104401809D480078401C9C4908709E4836
:1019E00000786040C0B29D49085C9B49087029E1BD
:1019F00097480078C0EBC00196480844847094482A
:101A00000078401C9249087090480078401C8F492B
:101A10000870914800786040C0B29049085C8E49D7
:101A200008700FE1894800782A3805287BD2DFE862
:101A300000F003162E4058008648801FA0F85A4038
:101A400082480078401C81490870834800786040D3
:101A5000C0B28249085C8049087065E065E07D4855
:101A6000801FB0F85A0000EB04207A49891FA1F8C2
:101A70005A0076480078401C74490870764800780F
:101A80006040C0B27549085C734908704CE0714809
:101A9000801FA0F85C406D480078401C6B490870BE
:101AA0006D4800786040C0B26C49085C6A490870B3
:101AB0003AE06848801FB0F85C0000EB04206549FC
:101AC000891FA1F85C0061480078401C5F490870DC
:101AD000614800786040C0B26049085C5E490870A7
:101AE00022E05C48801F80F85E4090F85E005A4912
:101AF000097888420AD100F0B3F959480088401C9F
:101B00005749088001205749087004E05F21514877
:101B1000801FFEF7B2FC00204F4908704B49087047
:101B20004B49087000BF00BF8CE048480078062889
:101B30007ED2DFE800F0031C35465C6D542C10D1DA
:101B40004448801F047041480078401C3F49087099
:101B5000414800786040C0B24049085C3E49087086
:101B600004E00020394908703B49087069E02C2CDA
:101B700010D13848801F447034480078401C3349E5
:101B80000870354800786040C0B23449085C32497A
:101B9000087004E000202D4908702F49087050E0BB
:101BA0002C48801F448029480078401C2749087031
:101BB000294800786040C0B22849085C264908706E
:101BC0003FE02448801F408800EB04202149891F02
:101BD00048801E480078401C1C4908701E48007848
:101BE0006040C0B21D49085C1B49087029E01948D3
:101BF000801F848015480078401C144908701648DE
:101C000000786040C0B21549085C1349087018E0BC
:101C10001048801F808800EB04200E49891F8880AF
:101C20000A480078401C094908700B48007800E019
:101C300006E06040C0B20949085C0749087000E04E
:101C400000BF00BF002010BD005000400C0000206D
:101C50000E0000202E0000200D000020522A000857
:101C6000000000200800002010B50022002340F6EC
:101C70006A14A14200D100BF0A1201249440A3B209
:101C8000DC43048010BD21B1828942F4005282817C
:101C900004E082894DF6FF731A408281704770B567
:101CA0000246002400230025002040F66A16B142B7
:101CB00000D100BFC1F3421501F01F03012606FA4F
:101CC00003F3012D02D19689334006E0022D02D1A3
:101CD000168A334001E0968A33400C12012606FA38
:101CE00004F41688344013B10CB1012000E0002048
:101CF00070BDF0B50346002400260025002040F604
:101D00006A17B94200D100BF1846C1F3421401F06E
:101D10001F06012707FA06F5012C01D10C3004E05B
:101D2000022C01D1103000E014301AB107682F43A3
:101D3000076002E00768AF430760F0BD2DE9FF4789
:101D400005460E460024A14600BFA046B08900B15A
:101D500000BF2C8A24F44054F08804432C82AC89C0
:101D600041F20C608443B08831890843718908438B
:101D70000443AC81AC8A24F44074B0890443AC823F
:101D80006846FFF7A1FC2048854202D01F488542E3
:101D900002D1DDF80C9001E0DDF80890A88900F48C
:101DA000004040B109EBC90000EB0910316849005F
:101DB000B0FBF1F707E009EBC90000EB091031684F
:101DC0008900B0FBF1F76420B7FBF0F004012009B3
:101DD000642101FB1078A88900F4004040B1322052
:101DE00000EBC800B0FBF1F000F00700044308E08E
:101DF000322000EB08106421B0FBF1F000F00F007E
:101E000004432C81BDE8FF8700100140001401400D
:101E100001468888C0F30800704700BFFEE703B49E
:101E200001984100009850EAC12018BF04204A0DD3
:101E300018BF40F0010040F2FF72B2EB515F08BFE3
:101E400040F00200012808BF052002B0704730387A
:101E50000A2801D2012070470020704700BF704758
:101E600030B52DED068B99B030210DA8FEF727FB7C
:101E70004C49888800F0CCFC41EC1A0B9FED4A0BD2
:101E800053EC102B00F06CFB41EC190B00F02AFB1B
:101E900008EE100A4349B1F85A0000F0B9FC41ECD1
:101EA0001A0B9FED410B53EC102B00F059FB41EC4A
:101EB000190B00F017FB08EE900A302101A8FEF77D
:101EC000FEFAB4EEE88AF1EE10FA05DD9FED380A6D
:101ED00038EE800AF0EE408A00203649087000246F
:101EE0002DE038EEC80AB2EE081AC0EE010A00EE84
:101EF000104AB8EEC01AB0EE480A00EE810A01A8F6
:101F000000EB840080ED000A01A800EB840090ED56
:101F1000000ADFED270AB4EEE00AF1EE10FA0DDD5B
:101F200001A800EB840090ED000ADFED210A30EEFD
:101F3000600A01A800EB840080ED000A641C0C2CF0
:101F4000CFDB002519E001A850F825001A490988BF
:101F50002944C1EBC101194A1144C1F80300C5EB82
:101F6000C5011048801D0844008813490988294488
:101F7000C1EBC101114408806D1C0C2DE3DB0E4840
:101F800000880C300C49088008460088B0F5347F82
:101F900004DB0020088001200949087019B0BDEC5D
:101FA000068B30BD280000200000000000005940D2
:101FB0000000B443080000200A0000208700002031
:101FC0000900002010B504466FF00400FFF768FC1C
:101FD000E11704EB5171C1F3C701074A11701046B4
:101FE000007800EB4001C1EBC0104FF6FF7101EA31
:101FF000C0000249088010BD10000020120000201F
:1020000070B504464FF4077094FBF0F0C6B24FF47D
:10201000077094FBF0F100FB114085B205E04FF42E
:10202000077000F009F8701EC6B2002EF7D115B186
:10203000284600F001F870BD0146114A12884A4353
:102040004FF0E0235A6100229A611A46126942F069
:1020500001021A6100BF4FF0E022106900F0010296
:102060001AB100F48032002AF5D04FF0E022126954
:1020700022F001024FF0E0231A6100229A617047BA
:1020800012000020F0EE400AF5EEC00AF1EE10FA60
:1020900002D2B1EE600A7047B0EE600AFBE70000C2
:1020A00000BF054A128802F04002002AF9D0C2B2ED
:1020B000014B9A8070470000001001402DED028B0B
:1020C00000F022F9D1E06948007801287DD168A0AC
:1020D000FEF7DCF86FA0FEF7D9F86FA0FEF7D6F890
:1020E00063A0FEF7D3F86BA0FEF7D0F80020754987
:1020F0000860A2E073480068C0EBC0007249084461
:10210000D0F8030000EE900A9FED701A70EEC10A3D
:10211000B0EE600AFFF7B6FF10EE104A204600F05E
:102120001BFC41EC180B9FED6A0B53EC102B00F0DD
:1021300083FB61D363480068C0EBC0006249084478
:10214000D0F8030000EE900A9FED631A70EEC10A0A
:10215000B0EE600AFFF796FF10EE104A204600F03E
:10216000FBFB41EC180B9FED5A0B53EC102B00F0CE
:1021700063FB41D353480068C0EBC0005249084498
:10218000D0F8030000EE900A9FED541A70EEC10AD9
:10219000B0EE600AFFF776FF10EE104A204600F01E
:1021A000DBFB41EC180B9FED4A0B53EC102B00F0BE
:1021B00043FB21D343480068C0EBC00042490844B8
:1021C000D0F8030000EE900A00E04BE09FED441AC7
:1021D00070EEC10AB0EE600AFFF754FF10EE104A2D
:1021E000204600F0B9FB41EC180B9FED390B53EC86
:1021F000102B00F021FB1BD232480068C0EBC0005E
:10220000314A1044D0F80310084600F0A5FB41EC19
:10221000180B53EC182B33A0FEF738F82948006848
:10222000C0EBC000284A1044018832A0FEF72EF807
:1022300024480068401C2349086022480068B0F523
:10224000347FFFF657AF0AA0FEF720F811A0FEF783
:102250001DF810A0FEF71AF80EA0FEF717F80020E0
:10226000024908700520FFF7CBFE2CE7090000208B
:102270002A2A2A2A2A2A2A2A2A2A2A2A2A2A2A2ABE
:102280002A2A2A2A2A2A2A2A2A2A2A2A2A2A2A2AAE
:102290002A2A2A000D0A000053756363657373666A
:1022A000756C6C7920726563656976656420612060
:1022B000636972636C65206F6620646174610D0AE6
:1022C0000000000004000020870000200000000043
:1022D000000000000000E03F0000B4420000344372
:1022E00000008743416E676C652069732025332E9B
:1022F00033662C0044697374616E74206973202501
:1023000064206D6D0D0A000010B5A820FFF75AFE7D
:102310004FF4A060FFF79CF9FFF73AF94FF4FA7019
:10232000FFF76EFE4FF4E13000F076F84FF46130C5
:1023300000F002F810BD000010B588B0044601217D
:102340000420FFF791F901210820FFF78DF9012101
:102350000805FFF799F908220C212C48FFF7F1F83E
:10236000082202212A48FFF7ECF84FF4805006902B
:1023700002208DF81C0000208DF81E0002208DF830
:102380001D0001208DF81F0006A92048FFF791F8D5
:102390000420069002208DF81C0000208DF81E00FD
:1023A00002208DF81D0001208DF81F0006A9184895
:1023B000FFF77FF835208DF8040002208DF8050026
:1023C00000208DF8060001208DF8070001A8FFF716
:1023D00003F902940020ADF80C00ADF80E00ADF842
:1023E0001000ADF814000C20ADF8120002A9094845
:1023F000FFF7A4FC012240F225510648FFF779FCC3
:1024000001210448FFF73FFC08B010BD000802405E
:10241000000C02400050004010B586B00446012177
:102420000846FFF721F901211020FFF73DF90722A7
:1024300009211E48FFF785F807220A211B48FFF7EC
:1024400080F84FF4C060049002208DF814008DF8DD
:10245000150000208DF8160001208DF8170004A942
:102460001248FFF726F81248006840F480401049EF
:1024700008600846006820F480400860009400204E
:10248000ADF80400ADF80600ADF80800ADF80C009A
:102490000C20ADF80A0069460648FFF74FFC012101
:1024A0000448FFF7F0FB06B010BD0000000002403A
:1024B000243802400010014010B500290AD00878E5
:1024C000002807D005487844FEF7E8FB002801D033
:1024D000002010BD0248784410BD000042070000F3
:1024E0003A07000021F00042A2F16052B2F5801FCD
:1024F00001F0004328BFD2F17F6C0BD95FEA001CCA
:1025000043EAC20242EB507018BF704728BF20F068
:1025100001007047B2F5801FBCBF184670474FEAF4
:10252000410C1CF5001F02D2084600F08BBA70B5B2
:1025300000F0BEF900000089FFF7F6BF4FF0004041
:10254000A0F580007047491058BFC1F140415B10B1
:1025500058BFC3F140438B42EFF300807047000047
:102560002DE9C04130B4DFF8A0C23CEA111418BF15
:102570003CEA131400F0EC8081EA03051CEA111414
:1025800044EAD57418BF1CEA131500F0C780A4EB09
:1025900005044FF0004545EAC12145EAC32341EA5D
:1025A000505143EA525304F17F74994204F50034C8
:1025B0004FEAC0204FEAC22208BF904200F09C8040
:1025C0004FEA13650FF24016765D4FEA134506FB9E
:1025D00005F7C7F1807706FB07F74FEAD737A7FB68
:1025E00003687642C8F58038A7FB06CE38BFA8F14D
:1025F000010807FB08E64FF0000EA6FB028CE6FB85
:1026000003CEDCF1000CCEF1004E38BFAEF1010E6E
:10261000A6FB0C584FF000074FF00005E6FB0E87B5
:10262000A1FB08C6A0FB07CE16EB0E0645F1000580
:10263000E1FB076515F1E04E7EBFA4F580345FEA4B
:1026400046066D4116F1800745F100054FEA172750
:102650004FEA066647EA0567A6F1DE46B6F1805FF7
:102660004FEA15251FD9384624F0010C05EBC4713B
:10267000BCF1FE6F01EB0C1102D8F0BCBDE800818B
:1026800024425CBF01F5801E9EEAC47F02D4F0BCE8
:10269000BDE80081244238D4F0BCA1F1C041BDE8BE
:1026A000004100F053B94FEAD22242EA43524FEAC6
:1026B000D323A7FB02864FEAD02040EA415007FB14
:1026C00003661EEA0E0F4FEAD12105FB026658BFD2
:1026D000A6EB0056B6EB00564FEA520E4EEAC37E0A
:1026E00018EB0E0E56EB530EBDD518EB02085E41EB
:1026F0007F1C55F10005B6E74FF480154FF0000739
:102700004FF000064FF00008ADE7F0BC4FF00000BE
:1027100001F1C04101F00041BDE8008111EA0C1F48
:102720000CEA131500D00CE013EA0C1F00F0258012
:102730004FF00000F0BC81EA030101F00041BDE868
:102740000081F0BCBDE8004181EA030100F0FEB861
:10275000F0BCBDE8004170B500F0AAF8097EFC3E6F
:1027600000F007B881EA03014FF0000001F00041DA
:10277000704781EA030100F0E9B8F0BCBDE8004110
:102780004FF0000021497047FFFDFBF9F7F5F4F227
:10279000F0EEEDEBE9E8E6E4E3E1E0DEDDDBDAD8FC
:1027A000D7D5D4D3D1D0CFCDCCCBCAC8C7C6C5C45A
:1027B000C2C1C0BFBEBDBCBBBAB9B8B7B6B5B4B371
:1027C000B2B1B0AFAEADACABAAA9A8A8A7A6A5A45C
:1027D000A3A3A2A1A09F9F9E9D9C9C9B9A99999820
:1027E0009797969595949393929191908F8F8E8EC3
:1027F0008D8C8C8B8B8A8989888887878685858450
:1028000084838382828181800000FF070000F87F3B
:10281000B0FA80F310FA03F10AD0C3F11D0303F5F7
:1028200080634FEA41504FEA035202EBD1217047D7
:102830004FF000007047000051EA030C17D41CF55C
:10284000801F58BFBCF5801F00F10680994218BF59
:10285000704708BF9042704707D711F5801F58BFD7
:1028600013F5801F19D499427047894270471CF5AF
:10287000801F08D5BCF5801FF7D58B4218BF704765
:1028800008BF824270474FF4001C1CEB410F38BF59
:102890001CEB430F01D28B42704770B500F008F873
:1028A000922449004FF000514FF08053FFF74BBE88
:1028B0000EF1020E2EF0030E5EF8046B364205D4C4
:1028C000012A43EB030515F5001F12D8012841EB3F
:1028D000010C1CF5001F0CD80ED14FEAD17C15F568
:1028E000001F0CEB4C0C0CF1020C08BF4CEBD37C22
:1028F00004E04FF0080C01E04FEAD37C0CEB4C05F0
:1029000026FA05F606F00706B6F1040C06D20EEB21
:10291000860CBDE870404CF0010C6047DFE80CF01D
:10292000090B02024FF000414FF00000A1F5002119
:1029300070BD19461046012851EB010418BFD4F5AB
:10294000001484BF002001F0004170BD0808A0F50C
:1029500000114FEA3101704743004FEAD30C4FEAB0
:102960003C0C43401FBF40070CF1605113F0FE4F79
:1029700070471CF0006F03D100200CF0004170473D
:102980000CF0004343EA507010B540EACC0000F070
:102990000EF800BF000000924FEA0001FFF7D6BF1B
:1029A0004FF000414FF00000A1F5002170470EF1FB
:1029B000020E2EF0030E5EF8044B244204D44FEABC
:1029C0004102B2F17F4F11D84FEA4003B3F17F4F7C
:1029D0000CD80ED14FEAD07CB2F17F4F0CEB4C0CEF
:1029E0000CF1020C08BF4CEBD17C04E04FF0080C5A
:1029F00001E04FEAD17C0CEB4C0324FA03F404F021
:102A00000704B4F1040C06D20EEB840CBDE81040B0
:102A10004CF0010C6047DFE80CF0070802024FF0B1
:102A20000040A0F5800010BD0846420018BFD2F15A
:102A3000807288BF00F0004010BD4FF04070E1EEA2
:102A4000100A7047FF2141EAD050C0057047FDF7DA
:102A500093BE004D9AD77934E3AEF2BF68258BC69A
:102A6000115CA9E4337ED09D4A075B16C18C226FAE
:102A7000B8F51F5285C8662BFCB1EDA0773A94D902
:102A80000E43B6FB2C61CF8255184409DE933D708E
:102A9000A7EA3E73A4E9470ADD90CC81561BB5F83E
:102AA0002F6297DA0D40EEA374396528FFB21C51EE
:102AB00086CB216CBBF65815C28FD39E4904AAE77A
:102AC000307D88C5125FF1BC6B267A37E0AD034ECE
:102AD00099D47C31E6AB05489FD28EC31459F7BA1E
:102AE0006D20D5984F02ACE1367B276ABDF05E13AE
:102AF000C489632EF9B41A5780CD91DC0B46E8A542
:102B0000723FCA87501DB3FE29643875A2EF410C8D
:102B1000DB96420FD8953B76A1ECB0FD2A67C984BD
:102B2000531EEBA6713C92DF0845195483CE602DED
:102B3000FAB75D10C78A2469BEF3AFE23578D69B39
:102B40004C01F4B96E238DC0175A064B9CD17F32CD
:102B5000E5A8000002400000000000A00000000006
:102B600005400000000000C8000000000C4000000C
:102B70000000409C00000000194000000020BCBE86
:102B80000000000034400000BFC91B8E000000049C
:102B9000B5400000504BCFD06607E2CF01000000E7
:102BA0006C4100003E8251AADFEEA7340100000014
:102BB000D9420000DCB5A0E23A301F97FFFFFFFFCB
:102BC000B4450000FD25A0C8E9A3C14FFFFFFFFFEA
:102BD000FF3F00000000008000000000FF3F0000F9
:102BE0000000008000000000242C000800000020ED
:102BF00028000000C40100084C2C00082800002018
:102C0000A01C0000E00100081C00000043000000C0
:102C1000F8FFFFFF0C0000000E0000000F00000096
:102C20002E00000000000000000000000000000076
:102C30000000000000000000000000000000000094
:0C2C400001020304010203040607080956
:040000050800018965
:00000001FF
